:0200000078295D
:10000600103083120313FD00FD0B072800000800C3
:0400160000000800DE
:10001A00083083120313FC002330FD00FD0B132864
:06002A00FC0B1328080086
:1000300083160313A11B1F28831206122128831283
:1000400006168316211B272883128612292883125D
:1000500086168316A11A2F288312061331288312BD
:1000600006178316211A372883128613392883121C
:1000700086176A183D2807143E28071087140B209E
:1000800087108316A1194728831206124928831264
:100090000616831621194F288312861251288312BF
:1000A00086168316A118572883120613592883121F
:1000B0000617831621185F2883128613612883127E
:1000C00086176A18652807146628071087140B20FE
:0E00D00087106A1C6D280D206E280320080082
:0E00DE008312031359088A0058088200080094
:1000EC0083120313F801F9011030FC00710DF80DA7
:1000FC00F90D7408F8027508031C750FF902031842
:10010C008E287408F80775080318750FF907031083
:0A011C00F00DF10DFC0B7C2808002B
:10012600831203136A1083162008A10018206A148C
:020136000800BF
:10013800AE28803083120313EB00C128C030EB00D7
:10014800C1289430EB00C128D430EB00C12880309E
:10015800EB00C128831203136B08013A03199D2889
:100168006B08023A0319A2286B08033A0319A52859
:100178006B08043A0319A828AB286C03F0006B0835
:10018800F0077008EB0070088316A10018206A10A9
:10019800EE016E086D07840000080319DC286E085C
:1001A8006D07840000088316A0009320EE0ACD286E
:0401B8006A140800BD
:1001BC008316031387100710861306138612061274
:1001CC0083128710071006128612061386130D2051
:1001DC000D200D200617861787140B2087100D2075
:1001EC0087140B2087100D2087140B2087100D20EF
:1001FC00861387140B2087100D2087140B20871073
:10020C000613061687140B2087100D20061286176E
:10021C0087140B208710861387140B2087100D2052
:10022C0087140B208710861787140B2087100D203E
:10023C00861387140B20871006168616061786174A
:0C024C0087140B2087100D206A14080096
:1002580083120313EE0105306E0203183A296E0863
:100268006D07840020308000EE0A2F296E086D0784
:1002780084008001EE036E086D07EF000A30F40079
:10028800F5016B08F0006C08F10076207808F000A2
:100298007908F1003030F0076F088400700880009A
:1002A8000A30F400F5016B08F0006C08F1007620C4
:1002B8007008EB007108EC0000307106031D662918
:1002C80000307006031D69296B29EE033F290800D9
:1002D8006F208A110A128000840AD80A0319D90AE1
:0802E800F003031D6C2908005E
:1002F000AC22831603178801890103300313890098
:10030000831289018316880183128801DE2003305D
:10031000FB008A30FC005530FD00FD0B8D29FC0BE5
:100320008D29FB0B8D29000000000130EB0001300E
:10033000EC002F30ED009C200230EB000130EC008F
:100340002030ED009C200B30FB002630FC005D309F
:10035000FD00FD0BA929FC0BA929FB0BA929000015
:10036000000001308316A10018200C308316A10074
:100370001820081501308316A100182000305106FE
:10038000031DC42900305006031DCC290815013077
:10039000D0000030D100D72900305106031DD229EA
:1003A00001305006031DD7290811D001D1010918C9
:1003B000DE290130CE000030CF00E229D201D30186
:1003C000CE01CF018918E9290130D6000030D700CD
:1003D000ED29D401D501D601D70100304F06031D08
:1003E000F32901304E06031D052A00305306031D74
:1003F000FB2900305206031D052ACC0A0319CD0A39
:100400000130D2000030D3001C2A00305706031DF3
:100410000B2A01305606031D1C2A00305506031D09
:10042000132A00305406031D1C2ABA0A0319BB0AFA
:100430000130D4000030D5004C08EB004D08EC0032
:100440005A30ED002C213A08EB003B08EC006230FA
:10045000ED002C210130EB000130EC004430ED00C8
:100460009C200230FC004B30FD00FD0B352AFC0BBC
:10047000352A0130EB000830EC005A30ED009C20AA
:100480000230FC004B30FD00FD0B442AFC0B442ADB
:100490000230EB000130EC003C30ED009C200230DB
:1004A000FC004B30FD00FD0B532AFC0B532A02309D
:1004B000EB000830EC006230ED009C200330FB00C4
:1004C0008A30FC005530FD00FD0B642AFC0B642AC9
:0C04D000FB0B642A00000000BA296D2A12
:1005580020308400383083120313F0007330D80041
:080568000230D9006C210800EB
:1004E6007C347C3445345234493443344B342034E0
:0E04F60056344534473441347C347C34003471
:100504002034203420347C347C344334553448340F
:060514007C347C3400344D
:04051A000034003475
:10051E0050343234003400340034003400340034AB
:10052E00503431340034003400340034003400349C
:04053E000034003451
:04054200003400344D
:040546000034003449
:04054A000034003445
:04054E000034003441
:04055200003400343D
:04400E00F52F000783
:00000001FF
