:020000000329D2
:0E000600213083120313FD00FD0B07280800B4
:100014000F3083120313FC004730FD00FD0B102842
:0A002400FC0B10280000000008008B
:06002E00000000000800C4
:1000340083120313B41B2028061221280616341B2E
:100044002528861226288616B41A2A2806132B2851
:100054000617341A2F288613302886172E183428AA
:10006400081435280810881417208810B4193C285F
:1000740006123D280616341941288612422886168F
:10008400B418462806134728061734184B28861335
:100094004C2886172E185028081451280810881444
:1000A400172088102E1C58280A20592803200800DD
:0E00B400831203132D088A002C088200080016
:1000C200831203132E103308B4001A202E140800D2
:1000D200831603138810081086130613861206125D
:1000E20083128810081006128612061386130A203D
:1000F2000A200A20061786178814172088100A205B
:100102008814172088100A208814172088100A20C3
:1001120086138814172088100A2088141720881044
:10012200061306168814172088100A20061286174E
:1001320088141720881086138814172088100A2024
:1001420088141720881086178814172088100A2010
:100152008613881417208810061686160617861727
:0C0162008814172088100A202E140800B2
:10016E00C928803083120313AF00DC28C030AF00E3
:10017E00DC289430AF00DC28D430AF00DC2880308F
:10018E00AF00DC28831203132F08013A0319B82895
:10019E002F08023A0319BD282F08033A0319C02865
:1001AE002F08043A0319C328C6283003F0002F087D
:1001BE00F0077008AF007008B4001A202E10B201BC
:1001CE0032083107840000080319F5283208310778
:1001DE0084000008B3006120B20AE7282E1408003C
:1001EE005A208A110A128000840AAC0A0319AD0A39
:0801FE00F003031DF7280800BF
:1002060083120313A001A101A201A301A401A50168
:10021600A601A701A801A901AA01AB01831603172C
:100226008801890103300313890083128901043090
:10023600831688008312880169200230FC004B3047
:10024600FD00FD0B2429FC0B24290130B4001A20E3
:100256000C30B4001A200815091836290130A00000
:100266000030A1003A29A401A501A001A101891825
:1002760041290130A2000030A3004529A801A901A7
:10028600A201A30100302106031D4B2901302006DF
:10029600031D5C2900302506031D53290030240662
:1002A600031D5C29AA0A0319AB0A0130A400003019
:1002B600A50000302306031D622901302206031D16
:1002C600732900302906031D6A2900302806031DFC
:1002D6007329A60A0319A70A0130A8000030A9004D
:1002E6000130AF000630B0002A08B100B720023056
:1002F600AF000630B0002608B100B7200330FC007E
:100306009730FD00FD0B8529FC0B852900000000B8
:040316002F298C29D6
:04400E00E42F000695
:00000001FF
